:100000000C944C000C946B000C946B000C946D00E1
:100010000C947C000C946B000C946B000C946B00A3
:100020000C946B000C946B000C946B000C946B00A4
:100030000C946B000C946B000C946B000C946B0094
:100040000C946B000C946B000C946B000C946B0084
:100050000C946B000C946B000C946B000C946B0074
:100060000C946B000C946B000C946B000C946B0064
:100070000C946B000C94F1000C946B000C946B00CE
:100080000C946B000C946B000C946B000C946B0044
:100090000C946B000C946B0011241FBECFEFD0E2C8
:1000A000DEBFCDBF11E0A0E0B1E0E8E6F2E000E0A5
:1000B0000BBF02C007900D92A030B107D9F711E035
:1000C000A0E0B1E001C01D92A530B107E1F70E94A8
:1000D000AD000C9432010C948B001F920F920FB65E
:1000E0000F9211248F9382E0809303018F910F90E0
:1000F0000FBE0F901F9018951F920F920FB60F9280
:1001000011248F9384E0809303018F910F900FBE91
:100110000F901F9018951F920F920FB60F921124F7
:100120000F900FBE0F901F901895F894EAE7F0E03B
:10013000808180688083808188608083ECE7F0E044
:100140008081806680838081816080837894EAE703
:10015000F0E080818064808308950E9495001AB841
:100160008FEF87B910920301F89486EF8AB98FEF69
:1001700087B98091690082608093690080916900ED
:100180008E7F809369008DB389608DBB78942FE05A
:1001900028B980910301823051F0833018F4813006
:1001A000B9F716C08430A1F0853091F715C0809161
:1001B000000190910101892B49F0109201011092E8
:1001C000000180917A00806480937A00809102011E
:1001D00088B910920301DCCF80EF88B980E090E00D
:1001E00008951F920F920FB60F9211248F939F9331
:1001F00080917800809304018091790080930201BE
:1002000081E090E090930101809300019F918F9194
:100210000F900FBE0F901F9018951AB88FEF87B9E7
:1002200008959C018091810081608093810080917C
:10023000810088608093810088EE93E0909389002C
:10024000809388001092850010928400B19A80E01B
:1002500090E004C0B19BFECFB19A0196821793073C
:08026000CCF30895F894FFCFE0
:00000001FF
